{
  "_format": "hh-sol-artifact-1",
  "contractName": "MyEpicNFT",
  "sourceName": "contracts/MyEpicNFT.sol",
  "abi": [
    {
      "inputs": [],
      "stateMutability": "nonpayable",
      "type": "constructor"
    },
    {
      "anonymous": false,
      "inputs": [
        {
          "indexed": true,
          "internalType": "address",
          "name": "owner",
          "type": "address"
        },
        {
          "indexed": true,
          "internalType": "address",
          "name": "approved",
          "type": "address"
        },
        {
          "indexed": true,
          "internalType": "uint256",
          "name": "tokenId",
          "type": "uint256"
        }
      ],
      "name": "Approval",
      "type": "event"
    },
    {
      "anonymous": false,
      "inputs": [
        {
          "indexed": true,
          "internalType": "address",
          "name": "owner",
          "type": "address"
        },
        {
          "indexed": true,
          "internalType": "address",
          "name": "operator",
          "type": "address"
        },
        {
          "indexed": false,
          "internalType": "bool",
          "name": "approved",
          "type": "bool"
        }
      ],
      "name": "ApprovalForAll",
      "type": "event"
    },
    {
      "anonymous": false,
      "inputs": [
        {
          "indexed": false,
          "internalType": "address",
          "name": "sender",
          "type": "address"
        },
        {
          "indexed": false,
          "internalType": "uint256",
          "name": "tokenId",
          "type": "uint256"
        }
      ],
      "name": "NewEpicNFTMinted",
      "type": "event"
    },
    {
      "anonymous": false,
      "inputs": [
        {
          "indexed": true,
          "internalType": "address",
          "name": "from",
          "type": "address"
        },
        {
          "indexed": true,
          "internalType": "address",
          "name": "to",
          "type": "address"
        },
        {
          "indexed": true,
          "internalType": "uint256",
          "name": "tokenId",
          "type": "uint256"
        }
      ],
      "name": "Transfer",
      "type": "event"
    },
    {
      "inputs": [
        {
          "internalType": "address",
          "name": "to",
          "type": "address"
        },
        {
          "internalType": "uint256",
          "name": "tokenId",
          "type": "uint256"
        }
      ],
      "name": "approve",
      "outputs": [],
      "stateMutability": "nonpayable",
      "type": "function"
    },
    {
      "inputs": [
        {
          "internalType": "address",
          "name": "owner",
          "type": "address"
        }
      ],
      "name": "balanceOf",
      "outputs": [
        {
          "internalType": "uint256",
          "name": "",
          "type": "uint256"
        }
      ],
      "stateMutability": "view",
      "type": "function"
    },
    {
      "inputs": [
        {
          "internalType": "uint256",
          "name": "tokenId",
          "type": "uint256"
        }
      ],
      "name": "getApproved",
      "outputs": [
        {
          "internalType": "address",
          "name": "",
          "type": "address"
        }
      ],
      "stateMutability": "view",
      "type": "function"
    },
    {
      "inputs": [
        {
          "internalType": "address",
          "name": "owner",
          "type": "address"
        },
        {
          "internalType": "address",
          "name": "operator",
          "type": "address"
        }
      ],
      "name": "isApprovedForAll",
      "outputs": [
        {
          "internalType": "bool",
          "name": "",
          "type": "bool"
        }
      ],
      "stateMutability": "view",
      "type": "function"
    },
    {
      "inputs": [],
      "name": "makeAnEpicNFT",
      "outputs": [],
      "stateMutability": "nonpayable",
      "type": "function"
    },
    {
      "inputs": [],
      "name": "name",
      "outputs": [
        {
          "internalType": "string",
          "name": "",
          "type": "string"
        }
      ],
      "stateMutability": "view",
      "type": "function"
    },
    {
      "inputs": [
        {
          "internalType": "uint256",
          "name": "tokenId",
          "type": "uint256"
        }
      ],
      "name": "ownerOf",
      "outputs": [
        {
          "internalType": "address",
          "name": "",
          "type": "address"
        }
      ],
      "stateMutability": "view",
      "type": "function"
    },
    {
      "inputs": [
        {
          "internalType": "uint256",
          "name": "tokenId",
          "type": "uint256"
        }
      ],
      "name": "pickRandomFirstWord",
      "outputs": [
        {
          "internalType": "string",
          "name": "",
          "type": "string"
        }
      ],
      "stateMutability": "view",
      "type": "function"
    },
    {
      "inputs": [
        {
          "internalType": "uint256",
          "name": "tokenId",
          "type": "uint256"
        }
      ],
      "name": "pickRandomSecondWord",
      "outputs": [
        {
          "internalType": "string",
          "name": "",
          "type": "string"
        }
      ],
      "stateMutability": "view",
      "type": "function"
    },
    {
      "inputs": [
        {
          "internalType": "uint256",
          "name": "tokenId",
          "type": "uint256"
        }
      ],
      "name": "pickRandomThirdWord",
      "outputs": [
        {
          "internalType": "string",
          "name": "",
          "type": "string"
        }
      ],
      "stateMutability": "view",
      "type": "function"
    },
    {
      "inputs": [
        {
          "internalType": "address",
          "name": "from",
          "type": "address"
        },
        {
          "internalType": "address",
          "name": "to",
          "type": "address"
        },
        {
          "internalType": "uint256",
          "name": "tokenId",
          "type": "uint256"
        }
      ],
      "name": "safeTransferFrom",
      "outputs": [],
      "stateMutability": "nonpayable",
      "type": "function"
    },
    {
      "inputs": [
        {
          "internalType": "address",
          "name": "from",
          "type": "address"
        },
        {
          "internalType": "address",
          "name": "to",
          "type": "address"
        },
        {
          "internalType": "uint256",
          "name": "tokenId",
          "type": "uint256"
        },
        {
          "internalType": "bytes",
          "name": "data",
          "type": "bytes"
        }
      ],
      "name": "safeTransferFrom",
      "outputs": [],
      "stateMutability": "nonpayable",
      "type": "function"
    },
    {
      "inputs": [
        {
          "internalType": "address",
          "name": "operator",
          "type": "address"
        },
        {
          "internalType": "bool",
          "name": "approved",
          "type": "bool"
        }
      ],
      "name": "setApprovalForAll",
      "outputs": [],
      "stateMutability": "nonpayable",
      "type": "function"
    },
    {
      "inputs": [
        {
          "internalType": "bytes4",
          "name": "interfaceId",
          "type": "bytes4"
        }
      ],
      "name": "supportsInterface",
      "outputs": [
        {
          "internalType": "bool",
          "name": "",
          "type": "bool"
        }
      ],
      "stateMutability": "view",
      "type": "function"
    },
    {
      "inputs": [],
      "name": "symbol",
      "outputs": [
        {
          "internalType": "string",
          "name": "",
          "type": "string"
        }
      ],
      "stateMutability": "view",
      "type": "function"
    },
    {
      "inputs": [
        {
          "internalType": "uint256",
          "name": "tokenId",
          "type": "uint256"
        }
      ],
      "name": "tokenURI",
      "outputs": [
        {
          "internalType": "string",
          "name": "",
          "type": "string"
        }
      ],
      "stateMutability": "view",
      "type": "function"
    },
    {
      "inputs": [
        {
          "internalType": "address",
          "name": "from",
          "type": "address"
        },
        {
          "internalType": "address",
          "name": "to",
          "type": "address"
        },
        {
          "internalType": "uint256",
          "name": "tokenId",
          "type": "uint256"
        }
      ],
      "name": "transferFrom",
      "outputs": [],
      "stateMutability": "nonpayable",
      "type": "function"
    }
  ],
  "bytecode": "0x608060405260405180610160016040528061012f81526020016200549261012f913960089081620000319190620017e8565b506040518061034001604052806040518060400160405280600981526020017f416d626974696f7573000000000000000000000000000000000000000000000081525081526020016040518060400160405280600981526020017f42656175746966756c000000000000000000000000000000000000000000000081525081526020016040518060400160405280600881526020017f436861726d696e6700000000000000000000000000000000000000000000000081525081526020016040518060400160405280600781526020017f44656c696768740000000000000000000000000000000000000000000000000081525081526020016040518060400160405280600881526020017f457468657265616c00000000000000000000000000000000000000000000000081525081526020016040518060400160405280600781526020017f466f72657665720000000000000000000000000000000000000000000000000081525081526020016040518060400160405280600881526020017f476f7267656f757300000000000000000000000000000000000000000000000081525081526020016040518060400160405280600581526020017f486170707900000000000000000000000000000000000000000000000000000081525081526020016040518060400160405280600b81526020017f496c6c75737472696f757300000000000000000000000000000000000000000081525081526020016040518060400160405280600881526020017f4a7562696c616e7400000000000000000000000000000000000000000000000081525081526020016040518060400160405280600881526020017f4b696e646e65737300000000000000000000000000000000000000000000000081525081526020016040518060400160405280600881526020017f4c756d696e6f757300000000000000000000000000000000000000000000000081525081526020016040518060400160405280600b81526020017f4d656c6c69666c756f757300000000000000000000000000000000000000000081525081526020016040518060400160405280600581526020017f4e6f626c6500000000000000000000000000000000000000000000000000000081525081526020016040518060400160405280600781526020017f4f6479737365790000000000000000000000000000000000000000000000000081525081526020016040518060400160405280600481526020017f507572650000000000000000000000000000000000000000000000000000000081525081526020016040518060400160405280600581526020017f5175696c6c00000000000000000000000000000000000000000000000000000081525081526020016040518060400160405280600781526020017f5261696e626f770000000000000000000000000000000000000000000000000081525081526020016040518060400160405280600781526020017f53756e726973650000000000000000000000000000000000000000000000000081525081526020016040518060400160405280600881526020017f5477696c6967687400000000000000000000000000000000000000000000000081525081526020016040518060400160405280600881526020017f556e69766572736500000000000000000000000000000000000000000000000081525081526020016040518060400160405280600781526020017f566963746f72790000000000000000000000000000000000000000000000000081525081526020016040518060400160405280600981526020017f576f6e64657266756c000000000000000000000000000000000000000000000081525081526020016040518060400160405280600681526020017f58656e69616c000000000000000000000000000000000000000000000000000081525081526020016040518060400160405280600581526020017f596f75727300000000000000000000000000000000000000000000000000000081525081526020016040518060400160405280600681526020017f5a656e6974680000000000000000000000000000000000000000000000000000815250815250600990601a6200064c92919062001475565b506040518061034001604052806040518060400160405280600681526020017f4175726f7261000000000000000000000000000000000000000000000000000081525081526020016040518060400160405280600981526020017f427574746572666c79000000000000000000000000000000000000000000000081525081526020016040518060400160405280600781526020017f436865726973680000000000000000000000000000000000000000000000000081525081526020016040518060400160405280600581526020017f447265616d00000000000000000000000000000000000000000000000000000081525081526020016040518060400160405280600781526020017f457465726e616c0000000000000000000000000000000000000000000000000081525081526020016040518060400160405280600981526020017f4672616772616e6365000000000000000000000000000000000000000000000081525081526020016040518060400160405280600581526020017f477261636500000000000000000000000000000000000000000000000000000081525081526020016040518060400160405280600781526020017f4861726d6f6e790000000000000000000000000000000000000000000000000081525081526020016040518060400160405280600881526020017f496e6e6f63656e7400000000000000000000000000000000000000000000000081525081526020016040518060400160405280600781526020017f4a7570797465720000000000000000000000000000000000000000000000000081525081526020016040518060400160405280600781526020017f4b696e647265640000000000000000000000000000000000000000000000000081525081526020016040518060400160405280600681526020017f4c7578757279000000000000000000000000000000000000000000000000000081525081526020016040518060400160405280600681526020017f4d656c6f6479000000000000000000000000000000000000000000000000000081525081526020016040518060400160405280600881526020017f4e6f637475726e6500000000000000000000000000000000000000000000000081525081526020016040518060400160405280600581526020017f4f6173697300000000000000000000000000000000000000000000000000000081525081526020016040518060400160405280600781526020017f50617373696f6e0000000000000000000000000000000000000000000000000081525081526020016040518060400160405280600581526020017f517565656e00000000000000000000000000000000000000000000000000000081525081526020016040518060400160405280600481526020017f526f73650000000000000000000000000000000000000000000000000000000081525081526020016040518060400160405280600381526020017f536b79000000000000000000000000000000000000000000000000000000000081525081526020016040518060400160405280600781526020017f5477696e6b6c650000000000000000000000000000000000000000000000000081525081526020016040518060400160405280600681526020017f556e69736f6e000000000000000000000000000000000000000000000000000081525081526020016040518060400160405280600581526020017f56656e757300000000000000000000000000000000000000000000000000000081525081526020016040518060400160405280600481526020017f576973680000000000000000000000000000000000000000000000000000000081525081526020016040518060400160405280600681526020017f587973747573000000000000000000000000000000000000000000000000000081525081526020016040518060400160405280600881526020017f596561726e696e6700000000000000000000000000000000000000000000000081525081526020016040518060400160405280600781526020017f5a65616c6f757300000000000000000000000000000000000000000000000000815250815250600a90601a62000c6792919062001475565b506040518061034001604052806040518060400160405280600481526020017f417175610000000000000000000000000000000000000000000000000000000081525081526020016040518060400160405280600781526020017f426c6f73736f6d0000000000000000000000000000000000000000000000000081525081526020016040518060400160405280600781526020017f4372797374616c0000000000000000000000000000000000000000000000000081525081526020016040518060400160405280600781526020017f44657374696e790000000000000000000000000000000000000000000000000081525081526020016040518060400160405280600881526020017f456c6567616e636500000000000000000000000000000000000000000000000081525081526020016040518060400160405280600481526020017f466174650000000000000000000000000000000000000000000000000000000081525081526020016040518060400160405280600681526020017f47616c617879000000000000000000000000000000000000000000000000000081525081526020016040518060400160405280600781526020017f486f72697a6f6e0000000000000000000000000000000000000000000000000081525081526020016040518060400160405280600881526020017f496e66696e69747900000000000000000000000000000000000000000000000081525081526020016040518060400160405280600381526020017f4a6f79000000000000000000000000000000000000000000000000000000000081525081526020016040518060400160405280600681526020017f4b6e69676874000000000000000000000000000000000000000000000000000081525081526020016040518060400160405280600481526020017f4c6f76650000000000000000000000000000000000000000000000000000000081525081526020016040518060400160405280600681526020017f4d656d6f7279000000000000000000000000000000000000000000000000000081525081526020016040518060400160405280600981526020017f4e6f7374616c676961000000000000000000000000000000000000000000000081525081526020016040518060400160405280600581526020017f4f6365616e00000000000000000000000000000000000000000000000000000081525081526020016040518060400160405280600581526020017f506561636500000000000000000000000000000000000000000000000000000081525081526020016040518060400160405280600581526020017f517565737400000000000000000000000000000000000000000000000000000081525081526020016040518060400160405280600781526020017f526f6d616e63650000000000000000000000000000000000000000000000000081525081526020016040518060400160405280600581526020017f536d696c6500000000000000000000000000000000000000000000000000000081525081526020016040518060400160405280600481526020017f54616c650000000000000000000000000000000000000000000000000000000081525081526020016040518060400160405280600681526020017f55746f706961000000000000000000000000000000000000000000000000000081525081526020016040518060400160405280600581526020017f566973746100000000000000000000000000000000000000000000000000000081525081526020016040518060400160405280600881526020017f57697a617264727900000000000000000000000000000000000000000000000081525081526020016040518060400160405280600681526020017f58616e616475000000000000000000000000000000000000000000000000000081525081526020016040518060400160405280600481526020017f5961726e0000000000000000000000000000000000000000000000000000000081525081526020016040518060400160405280600681526020017f5a65706879720000000000000000000000000000000000000000000000000000815250815250600b90601a6200128292919062001475565b503480156200129057600080fd5b506040518060400160405280600981526020017f5371756172654e465400000000000000000000000000000000000000000000008152506040518060400160405280600681526020017f535155415245000000000000000000000000000000000000000000000000000081525081600090816200130e9190620017e8565b508060019081620013209190620017e8565b5050506200136e6040518060400160405280601881526020017f54686973206973206d79204e465420636f6e74726163742e00000000000000008152506200137460201b620010a21760201c565b620019b1565b62001414816040516024016200138b91906200195e565b6040516020818303038152906040527f41304fac000000000000000000000000000000000000000000000000000000007bffffffffffffffffffffffffffffffffffffffffffffffffffffffff19166020820180517bffffffffffffffffffffffffffffffffffffffffffffffffffffffff83818316178352505050506200141760201b60201c565b50565b6200143d81620014386200144060201b6200113b176200146160201b60201c565b60201c565b50565b60006a636f6e736f6c652e6c6f679050600080835160208501845afa505050565b620014d560201b6200234d17819050919050565b828054828255906000526020600020908101928215620014c2579160200282015b82811115620014c1578251829081620014b09190620017e8565b509160200191906001019062001496565b5b509050620014d19190620014e1565b5090565b620014df62001982565b565b5b80821115620015055760008181620014fb919062001509565b50600101620014e2565b5090565b5080546200151790620015d7565b6000825580601f106200152b57506200154c565b601f0160209004906000526020600020908101906200154b91906200154f565b5b50565b5b808211156200156a57600081600090555060010162001550565b5090565b600081519050919050565b7f4e487b7100000000000000000000000000000000000000000000000000000000600052604160045260246000fd5b7f4e487b7100000000000000000000000000000000000000000000000000000000600052602260045260246000fd5b60006002820490506001821680620015f057607f821691505b602082108103620016065762001605620015a8565b5b50919050565b60008190508160005260206000209050919050565b60006020601f8301049050919050565b600082821b905092915050565b600060088302620016707fffffffffffffffffffffffffffffffffffffffffffffffffffffffffffffffff8262001631565b6200167c868362001631565b95508019841693508086168417925050509392505050565b6000819050919050565b6000819050919050565b6000620016c9620016c3620016bd8462001694565b6200169e565b62001694565b9050919050565b6000819050919050565b620016e583620016a8565b620016fd620016f482620016d0565b8484546200163e565b825550505050565b600090565b6200171462001705565b62001721818484620016da565b505050565b5b8181101562001749576200173d6000826200170a565b60018101905062001727565b5050565b601f821115620017985762001762816200160c565b6200176d8462001621565b810160208510156200177d578190505b620017956200178c8562001621565b83018262001726565b50505b505050565b600082821c905092915050565b6000620017bd600019846008026200179d565b1980831691505092915050565b6000620017d88383620017aa565b9150826002028217905092915050565b620017f3826200156e565b67ffffffffffffffff8111156200180f576200180e62001579565b5b6200181b8254620015d7565b620018288282856200174d565b600060209050601f8311600181146200186057600084156200184b578287015190505b620018578582620017ca565b865550620018c7565b601f19841662001870866200160c565b60005b828110156200189a5784890151825560018201915060208501945060208101905062001873565b86831015620018ba5784890151620018b6601f891682620017aa565b8355505b6001600288020188555050505b505050505050565b600082825260208201905092915050565b60005b8381101562001900578082015181840152602081019050620018e3565b60008484015250505050565b6000601f19601f8301169050919050565b60006200192a826200156e565b620019368185620018cf565b935062001948818560208601620018e0565b62001953816200190c565b840191505092915050565b600060208201905081810360008301526200197a81846200191d565b905092915050565b7f4e487b7100000000000000000000000000000000000000000000000000000000600052605160045260246000fd5b613ad180620019c16000396000f3fe608060405234801561001057600080fd5b506004361061010b5760003560e01c806370a08231116100a2578063b88d4fde11610071578063b88d4fde146102dc578063c575757a146102f8578063c87b56dd14610328578063de9d132f14610358578063e985e9c5146103625761010b565b806370a082311461024257806395d89b4114610272578063a22cb46514610290578063b187301f146102ac5761010b565b806323b872dd116100de57806323b872dd146101aa5780632de38d68146101c657806342842e0e146101f65780636352211e146102125761010b565b806301ffc9a71461011057806306fdde0314610140578063081812fc1461015e578063095ea7b31461018e575b600080fd5b61012a600480360381019061012591906123c3565b610392565b604051610137919061240b565b60405180910390f35b610148610474565b60405161015591906124b6565b60405180910390f35b6101786004803603810190610173919061250e565b610506565b604051610185919061257c565b60405180910390f35b6101a860048036038101906101a391906125c3565b61054c565b005b6101c460048036038101906101bf9190612603565b610663565b005b6101e060048036038101906101db919061250e565b6106c3565b6040516101ed91906124b6565b60405180910390f35b610210600480360381019061020b9190612603565b610839565b005b61022c6004803603810190610227919061250e565b610859565b604051610239919061257c565b60405180910390f35b61025c60048036038101906102579190612656565b6108df565b6040516102699190612692565b60405180910390f35b61027a610996565b60405161028791906124b6565b60405180910390f35b6102aa60048036038101906102a591906126d9565b610a28565b005b6102c660048036038101906102c1919061250e565b610a3e565b6040516102d391906124b6565b60405180910390f35b6102f660048036038101906102f1919061284e565b610b36565b005b610312600480360381019061030d919061250e565b610b98565b60405161031f91906124b6565b60405180910390f35b610342600480360381019061033d919061250e565b610c90565b60405161034f91906124b6565b60405180910390f35b610360610da2565b005b61037c600480360381019061037791906128d1565b61100e565b604051610389919061240b565b60405180910390f35b60007f80ac58cd000000000000000000000000000000000000000000000000000000007bffffffffffffffffffffffffffffffffffffffffffffffffffffffff1916827bffffffffffffffffffffffffffffffffffffffffffffffffffffffff1916148061045d57507f5b5e139f000000000000000000000000000000000000000000000000000000007bffffffffffffffffffffffffffffffffffffffffffffffffffffffff1916827bffffffffffffffffffffffffffffffffffffffffffffffffffffffff1916145b8061046d575061046c8261115c565b5b9050919050565b60606000805461048390612940565b80601f01602080910402602001604051908101604052809291908181526020018280546104af90612940565b80156104fc5780601f106104d1576101008083540402835291602001916104fc565b820191906000526020600020905b8154815290600101906020018083116104df57829003601f168201915b5050505050905090565b6000610511826111c6565b6004600083815260200190815260200160002060009054906101000a900473ffffffffffffffffffffffffffffffffffffffff169050919050565b600061055782610859565b90508073ffffffffffffffffffffffffffffffffffffffff168373ffffffffffffffffffffffffffffffffffffffff16036105c7576040517f08c379a00000000000000000000000000000000000000000000000000000000081526004016105be906129e3565b60405180910390fd5b8073ffffffffffffffffffffffffffffffffffffffff166105e6611211565b73ffffffffffffffffffffffffffffffffffffffff16148061061557506106148161060f611211565b61100e565b5b610654576040517f08c379a000000000000000000000000000000000000000000000000000000000815260040161064b90612a75565b60405180910390fd5b61065e8383611219565b505050565b61067461066e611211565b826112d2565b6106b3576040517f08c379a00000000000000000000000000000000000000000000000000000000081526004016106aa90612b07565b60405180910390fd5b6106be838383611367565b505050565b606060006106f76106d384611660565b6040516020016106e39190612baf565b60405160208183030381529060405261172e565b90506107386040518060400160405280600d81526020017f72616e64202d20736565643a200000000000000000000000000000000000000081525082611761565b600980549050816107499190612c00565b905061078a6040518060400160405280601381526020017f72616e64202d20666972737420776f72643a200000000000000000000000000081525082611761565b6009818154811061079e5761079d612c31565b5b9060005260206000200180546107b390612940565b80601f01602080910402602001604051908101604052809291908181526020018280546107df90612940565b801561082c5780601f106108015761010080835404028352916020019161082c565b820191906000526020600020905b81548152906001019060200180831161080f57829003601f168201915b5050505050915050919050565b61085483838360405180602001604052806000815250610b36565b505050565b600080610865836117fd565b9050600073ffffffffffffffffffffffffffffffffffffffff168173ffffffffffffffffffffffffffffffffffffffff16036108d6576040517f08c379a00000000000000000000000000000000000000000000000000000000081526004016108cd90612cac565b60405180910390fd5b80915050919050565b60008073ffffffffffffffffffffffffffffffffffffffff168273ffffffffffffffffffffffffffffffffffffffff160361094f576040517f08c379a000000000000000000000000000000000000000000000000000000000815260040161094690612d3e565b60405180910390fd5b600360008373ffffffffffffffffffffffffffffffffffffffff1673ffffffffffffffffffffffffffffffffffffffff168152602001908152602001600020549050919050565b6060600180546109a590612940565b80601f01602080910402602001604051908101604052809291908181526020018280546109d190612940565b8015610a1e5780601f106109f357610100808354040283529160200191610a1e565b820191906000526020600020905b815481529060010190602001808311610a0157829003601f168201915b5050505050905090565b610a3a610a33611211565b838361183a565b5050565b60606000610a72610a4e84611660565b604051602001610a5e9190612daa565b60405160208183030381529060405261172e565b9050600a8054905081610a859190612c00565b9050600a8181548110610a9b57610a9a612c31565b5b906000526020600020018054610ab090612940565b80601f0160208091040260200160405190810160405280929190818152602001828054610adc90612940565b8015610b295780601f10610afe57610100808354040283529160200191610b29565b820191906000526020600020905b815481529060010190602001808311610b0c57829003601f168201915b5050505050915050919050565b610b47610b41611211565b836112d2565b610b86576040517f08c379a0000000000000000000000000000000000000000000000000000000008152600401610b7d90612b07565b60405180910390fd5b610b92848484846119a6565b50505050565b60606000610bcc610ba884611660565b604051602001610bb89190612e18565b60405160208183030381529060405261172e565b9050600b8054905081610bdf9190612c00565b9050600b8181548110610bf557610bf4612c31565b5b906000526020600020018054610c0a90612940565b80601f0160208091040260200160405190810160405280929190818152602001828054610c3690612940565b8015610c835780601f10610c5857610100808354040283529160200191610c83565b820191906000526020600020905b815481529060010190602001808311610c6657829003601f168201915b5050505050915050919050565b6060610c9b826111c6565b6000600660008481526020019081526020016000208054610cbb90612940565b80601f0160208091040260200160405190810160405280929190818152602001828054610ce790612940565b8015610d345780601f10610d0957610100808354040283529160200191610d34565b820191906000526020600020905b815481529060010190602001808311610d1757829003601f168201915b505050505090506000610d45611a02565b90506000815103610d5a578192505050610d9d565b600082511115610d8f578082604051602001610d77929190612e3a565b60405160208183030381529060405292505050610d9d565b610d9884611a19565b925050505b919050565b610dac6007611a81565b6000610db86007611a97565b90506000610dc5826106c3565b90506000610dd283610a3e565b90506000610ddf84610b98565b90506000838383604051602001610df893929190612e5e565b60405160208183030381529060405290506000600882604051602001610e1f929190612f73565b6040516020818303038152906040529050610e6e6040518060400160405280601581526020017f0a2d2d2d2d2d205356472064617461202d2d2d2d2d00000000000000000000008152506110a2565b610e77816110a2565b610eb56040518060400160405280601581526020017f2d2d2d2d2d2d2d2d2d2d2d2d2d2d2d2d2d2d2d2d0a00000000000000000000008152506110a2565b6000610ee983610ec484611aa5565b604051602001610ed59291906130f8565b604051602081830303815290604052611aa5565b9050600081604051602001610efe9190613189565b6040516020818303038152906040529050610f4d6040518060400160405280601581526020017f0a2d2d2d2d2d20546f6b656e20555249202d2d2d2d00000000000000000000008152506110a2565b610f56816110a2565b610f946040518060400160405280601581526020017f2d2d2d2d2d2d2d2d2d2d2d2d2d2d2d2d2d2d2d2d0a00000000000000000000008152506110a2565b610f9e3389611c3c565b610fa88882611c5a565b610fcb604051806060016040528060258152602001613a37602591398933611cc7565b7febb98688741ffa4c7589bf325de30cf7becb63de567842e1ccdb6cb949fdc82c3389604051610ffc9291906131ab565b60405180910390a15050505050505050565b6000600560008473ffffffffffffffffffffffffffffffffffffffff1673ffffffffffffffffffffffffffffffffffffffff16815260200190815260200160002060008373ffffffffffffffffffffffffffffffffffffffff1673ffffffffffffffffffffffffffffffffffffffff16815260200190815260200160002060009054906101000a900460ff16905092915050565b611138816040516024016110b691906124b6565b6040516020818303038152906040527f41304fac000000000000000000000000000000000000000000000000000000007bffffffffffffffffffffffffffffffffffffffffffffffffffffffff19166020820180517bffffffffffffffffffffffffffffffffffffffffffffffffffffffff8381831617835250505050611d66565b50565b60006a636f6e736f6c652e6c6f679050600080835160208501845afa505050565b60007f01ffc9a7000000000000000000000000000000000000000000000000000000007bffffffffffffffffffffffffffffffffffffffffffffffffffffffff1916827bffffffffffffffffffffffffffffffffffffffffffffffffffffffff1916149050919050565b6111cf81611d80565b61120e576040517f08c379a000000000000000000000000000000000000000000000000000000000815260040161120590612cac565b60405180910390fd5b50565b600033905090565b816004600083815260200190815260200160002060006101000a81548173ffffffffffffffffffffffffffffffffffffffff021916908373ffffffffffffffffffffffffffffffffffffffff160217905550808273ffffffffffffffffffffffffffffffffffffffff1661128c83610859565b73ffffffffffffffffffffffffffffffffffffffff167f8c5be1e5ebec7d5bd14f71427d1e84f3dd0314c0f7b2291e5b200ac8c7c3b92560405160405180910390a45050565b6000806112de83610859565b90508073ffffffffffffffffffffffffffffffffffffffff168473ffffffffffffffffffffffffffffffffffffffff161480611320575061131f818561100e565b5b8061135e57508373ffffffffffffffffffffffffffffffffffffffff1661134684610506565b73ffffffffffffffffffffffffffffffffffffffff16145b91505092915050565b8273ffffffffffffffffffffffffffffffffffffffff1661138782610859565b73ffffffffffffffffffffffffffffffffffffffff16146113dd576040517f08c379a00000000000000000000000000000000000000000000000000000000081526004016113d490613246565b60405180910390fd5b600073ffffffffffffffffffffffffffffffffffffffff168273ffffffffffffffffffffffffffffffffffffffff160361144c576040517f08c379a0000000000000000000000000000000000000000000000000000000008152600401611443906132d8565b60405180910390fd5b6114598383836001611dc1565b8273ffffffffffffffffffffffffffffffffffffffff1661147982610859565b73ffffffffffffffffffffffffffffffffffffffff16146114cf576040517f08c379a00000000000000000000000000000000000000000000000000000000081526004016114c690613246565b60405180910390fd5b6004600082815260200190815260200160002060006101000a81549073ffffffffffffffffffffffffffffffffffffffff02191690556001600360008573ffffffffffffffffffffffffffffffffffffffff1673ffffffffffffffffffffffffffffffffffffffff168152602001908152602001600020600082825403925050819055506001600360008473ffffffffffffffffffffffffffffffffffffffff1673ffffffffffffffffffffffffffffffffffffffff16815260200190815260200160002060008282540192505081905550816002600083815260200190815260200160002060006101000a81548173ffffffffffffffffffffffffffffffffffffffff021916908373ffffffffffffffffffffffffffffffffffffffff160217905550808273ffffffffffffffffffffffffffffffffffffffff168473ffffffffffffffffffffffffffffffffffffffff167fddf252ad1be2c89b69c2b068fc378daa952ba7f163c4a11628f55a4df523b3ef60405160405180910390a461165b8383836001611dc7565b505050565b60606000600161166f84611dcd565b01905060008167ffffffffffffffff81111561168e5761168d612723565b5b6040519080825280601f01601f1916602001820160405280156116c05781602001600182028036833780820191505090505b509050600082602001820190505b600115611723578080600190039150507f3031323334353637383961626364656600000000000000000000000000000000600a86061a8153600a858161171757611716612bd1565b5b049450600085036116ce575b819350505050919050565b60008160405160200161174191906132f8565b6040516020818303038152906040528051906020012060001c9050919050565b6117f9828260405160240161177792919061330f565b6040516020818303038152906040527fb60e72cc000000000000000000000000000000000000000000000000000000007bffffffffffffffffffffffffffffffffffffffffffffffffffffffff19166020820180517bffffffffffffffffffffffffffffffffffffffffffffffffffffffff8381831617835250505050611d66565b5050565b60006002600083815260200190815260200160002060009054906101000a900473ffffffffffffffffffffffffffffffffffffffff169050919050565b8173ffffffffffffffffffffffffffffffffffffffff168373ffffffffffffffffffffffffffffffffffffffff16036118a8576040517f08c379a000000000000000000000000000000000000000000000000000000000815260040161189f9061338b565b60405180910390fd5b80600560008573ffffffffffffffffffffffffffffffffffffffff1673ffffffffffffffffffffffffffffffffffffffff16815260200190815260200160002060008473ffffffffffffffffffffffffffffffffffffffff1673ffffffffffffffffffffffffffffffffffffffff16815260200190815260200160002060006101000a81548160ff0219169083151502179055508173ffffffffffffffffffffffffffffffffffffffff168373ffffffffffffffffffffffffffffffffffffffff167f17307eab39ab6107e8899845ad3d59bd9653f200f220920489ca2b5937696c3183604051611999919061240b565b60405180910390a3505050565b6119b1848484611367565b6119bd84848484611f20565b6119fc576040517f08c379a00000000000000000000000000000000000000000000000000000000081526004016119f39061341d565b60405180910390fd5b50505050565b606060405180602001604052806000815250905090565b6060611a24826111c6565b6000611a2e611a02565b90506000815111611a4e5760405180602001604052806000815250611a79565b80611a5884611660565b604051602001611a69929190612e3a565b6040516020818303038152906040525b915050919050565b6001816000016000828254019250508190555050565b600081600001549050919050565b606060008251905060008103611acd5760405180602001604052806000815250915050611c37565b60006003600283611ade919061346c565b611ae891906134a0565b6004611af491906134d1565b90506000602082611b05919061346c565b67ffffffffffffffff811115611b1e57611b1d612723565b5b6040519080825280601f01601f191660200182016040528015611b505781602001600182028036833780820191505090505b5090506000604051806060016040528060408152602001613a5c604091399050600181016020830160005b86811015611bf45760038101905062ffffff818a015116603f8160121c168401518060081b905060ff603f83600c1c1686015116810190508060081b905060ff603f8360061c1686015116810190508060081b905060ff603f831686015116810190508060e01b90508084526004840193505050611b7b565b506003860660018114611c0e5760028114611c1e57611c29565b613d3d60f01b6002830352611c29565b603d60f81b60018303525b508484525050819450505050505b919050565b611c568282604051806020016040528060008152506120a7565b5050565b611c6382611d80565b611ca2576040517f08c379a0000000000000000000000000000000000000000000000000000000008152600401611c9990613585565b60405180910390fd5b80600660008481526020019081526020016000209081611cc2919061373c565b505050565b611d61838383604051602401611cdf9392919061380e565b6040516020818303038152906040527f1c7ec448000000000000000000000000000000000000000000000000000000007bffffffffffffffffffffffffffffffffffffffffffffffffffffffff19166020820180517bffffffffffffffffffffffffffffffffffffffffffffffffffffffff8381831617835250505050611d66565b505050565b611d7d81611d7561113b612102565b63ffffffff16565b50565b60008073ffffffffffffffffffffffffffffffffffffffff16611da2836117fd565b73ffffffffffffffffffffffffffffffffffffffff1614159050919050565b50505050565b50505050565b600080600090507a184f03e93ff9f4daa797ed6e38ed64bf6a1f0100000000000000008310611e2b577a184f03e93ff9f4daa797ed6e38ed64bf6a1f0100000000000000008381611e2157611e20612bd1565b5b0492506040810190505b6d04ee2d6d415b85acef81000000008310611e68576d04ee2d6d415b85acef81000000008381611e5e57611e5d612bd1565b5b0492506020810190505b662386f26fc100008310611e9757662386f26fc100008381611e8d57611e8c612bd1565b5b0492506010810190505b6305f5e1008310611ec0576305f5e1008381611eb657611eb5612bd1565b5b0492506008810190505b6127108310611ee5576127108381611edb57611eda612bd1565b5b0492506004810190505b60648310611f085760648381611efe57611efd612bd1565b5b0492506002810190505b600a8310611f17576001810190505b80915050919050565b6000611f418473ffffffffffffffffffffffffffffffffffffffff1661210d565b1561209a578373ffffffffffffffffffffffffffffffffffffffff1663150b7a02611f6a611211565b8786866040518563ffffffff1660e01b8152600401611f8c94939291906138a1565b6020604051808303816000875af1925050508015611fc857506040513d601f19601f82011682018060405250810190611fc59190613902565b60015b61204a573d8060008114611ff8576040519150601f19603f3d011682016040523d82523d6000602084013e611ffd565b606091505b506000815103612042576040517f08c379a00000000000000000000000000000000000000000000000000000000081526004016120399061341d565b60405180910390fd5b805181602001fd5b63150b7a0260e01b7bffffffffffffffffffffffffffffffffffffffffffffffffffffffff1916817bffffffffffffffffffffffffffffffffffffffffffffffffffffffff19161491505061209f565b600190505b949350505050565b6120b18383612130565b6120be6000848484611f20565b6120fd576040517f08c379a00000000000000000000000000000000000000000000000000000000081526004016120f49061341d565b60405180910390fd5b505050565b61234d819050919050565b6000808273ffffffffffffffffffffffffffffffffffffffff163b119050919050565b600073ffffffffffffffffffffffffffffffffffffffff168273ffffffffffffffffffffffffffffffffffffffff160361219f576040517f08c379a00000000000000000000000000000000000000000000000000000000081526004016121969061397b565b60405180910390fd5b6121a881611d80565b156121e8576040517f08c379a00000000000000000000000000000000000000000000000000000000081526004016121df906139e7565b60405180910390fd5b6121f6600083836001611dc1565b6121ff81611d80565b1561223f576040517f08c379a0000000000000000000000000000000000000000000000000000000008152600401612236906139e7565b60405180910390fd5b6001600360008473ffffffffffffffffffffffffffffffffffffffff1673ffffffffffffffffffffffffffffffffffffffff16815260200190815260200160002060008282540192505081905550816002600083815260200190815260200160002060006101000a81548173ffffffffffffffffffffffffffffffffffffffff021916908373ffffffffffffffffffffffffffffffffffffffff160217905550808273ffffffffffffffffffffffffffffffffffffffff16600073ffffffffffffffffffffffffffffffffffffffff167fddf252ad1be2c89b69c2b068fc378daa952ba7f163c4a11628f55a4df523b3ef60405160405180910390a4612349600083836001611dc7565b5050565b612355613a07565b565b6000604051905090565b600080fd5b600080fd5b60007fffffffff0000000000000000000000000000000000000000000000000000000082169050919050565b6123a08161236b565b81146123ab57600080fd5b50565b6000813590506123bd81612397565b92915050565b6000602082840312156123d9576123d8612361565b5b60006123e7848285016123ae565b91505092915050565b60008115159050919050565b612405816123f0565b82525050565b600060208201905061242060008301846123fc565b92915050565b600081519050919050565b600082825260208201905092915050565b60005b83811015612460578082015181840152602081019050612445565b60008484015250505050565b6000601f19601f8301169050919050565b600061248882612426565b6124928185612431565b93506124a2818560208601612442565b6124ab8161246c565b840191505092915050565b600060208201905081810360008301526124d0818461247d565b905092915050565b6000819050919050565b6124eb816124d8565b81146124f657600080fd5b50565b600081359050612508816124e2565b92915050565b60006020828403121561252457612523612361565b5b6000612532848285016124f9565b91505092915050565b600073ffffffffffffffffffffffffffffffffffffffff82169050919050565b60006125668261253b565b9050919050565b6125768161255b565b82525050565b6000602082019050612591600083018461256d565b92915050565b6125a08161255b565b81146125ab57600080fd5b50565b6000813590506125bd81612597565b92915050565b600080604083850312156125da576125d9612361565b5b60006125e8858286016125ae565b92505060206125f9858286016124f9565b9150509250929050565b60008060006060848603121561261c5761261b612361565b5b600061262a868287016125ae565b935050602061263b868287016125ae565b925050604061264c868287016124f9565b9150509250925092565b60006020828403121561266c5761266b612361565b5b600061267a848285016125ae565b91505092915050565b61268c816124d8565b82525050565b60006020820190506126a76000830184612683565b92915050565b6126b6816123f0565b81146126c157600080fd5b50565b6000813590506126d3816126ad565b92915050565b600080604083850312156126f0576126ef612361565b5b60006126fe858286016125ae565b925050602061270f858286016126c4565b9150509250929050565b600080fd5b600080fd5b7f4e487b7100000000000000000000000000000000000000000000000000000000600052604160045260246000fd5b61275b8261246c565b810181811067ffffffffffffffff8211171561277a57612779612723565b5b80604052505050565b600061278d612357565b90506127998282612752565b919050565b600067ffffffffffffffff8211156127b9576127b8612723565b5b6127c28261246c565b9050602081019050919050565b82818337600083830152505050565b60006127f16127ec8461279e565b612783565b90508281526020810184848401111561280d5761280c61271e565b5b6128188482856127cf565b509392505050565b600082601f83011261283557612834612719565b5b81356128458482602086016127de565b91505092915050565b6000806000806080858703121561286857612867612361565b5b6000612876878288016125ae565b9450506020612887878288016125ae565b9350506040612898878288016124f9565b925050606085013567ffffffffffffffff8111156128b9576128b8612366565b5b6128c587828801612820565b91505092959194509250565b600080604083850312156128e8576128e7612361565b5b60006128f6858286016125ae565b9250506020612907858286016125ae565b9150509250929050565b7f4e487b7100000000000000000000000000000000000000000000000000000000600052602260045260246000fd5b6000600282049050600182168061295857607f821691505b60208210810361296b5761296a612911565b5b50919050565b7f4552433732313a20617070726f76616c20746f2063757272656e74206f776e6560008201527f7200000000000000000000000000000000000000000000000000000000000000602082015250565b60006129cd602183612431565b91506129d882612971565b604082019050919050565b600060208201905081810360008301526129fc816129c0565b9050919050565b7f4552433732313a20617070726f76652063616c6c6572206973206e6f7420746f60008201527f6b656e206f776e6572206f7220617070726f76656420666f7220616c6c000000602082015250565b6000612a5f603d83612431565b9150612a6a82612a03565b604082019050919050565b60006020820190508181036000830152612a8e81612a52565b9050919050565b7f4552433732313a2063616c6c6572206973206e6f7420746f6b656e206f776e6560008201527f72206f7220617070726f76656400000000000000000000000000000000000000602082015250565b6000612af1602d83612431565b9150612afc82612a95565b604082019050919050565b60006020820190508181036000830152612b2081612ae4565b9050919050565b600081905092915050565b7f46495253545f574f524400000000000000000000000000000000000000000000600082015250565b6000612b68600a83612b27565b9150612b7382612b32565b600a82019050919050565b6000612b8982612426565b612b938185612b27565b9350612ba3818560208601612442565b80840191505092915050565b6000612bba82612b5b565b9150612bc68284612b7e565b915081905092915050565b7f4e487b7100000000000000000000000000000000000000000000000000000000600052601260045260246000fd5b6000612c0b826124d8565b9150612c16836124d8565b925082612c2657612c25612bd1565b5b828206905092915050565b7f4e487b7100000000000000000000000000000000000000000000000000000000600052603260045260246000fd5b7f4552433732313a20696e76616c696420746f6b656e2049440000000000000000600082015250565b6000612c96601883612431565b9150612ca182612c60565b602082019050919050565b60006020820190508181036000830152612cc581612c89565b9050919050565b7f4552433732313a2061646472657373207a65726f206973206e6f74206120766160008201527f6c6964206f776e65720000000000000000000000000000000000000000000000602082015250565b6000612d28602983612431565b9150612d3382612ccc565b604082019050919050565b60006020820190508181036000830152612d5781612d1b565b9050919050565b7f5345434f4e445f574f5244000000000000000000000000000000000000000000600082015250565b6000612d94600b83612b27565b9150612d9f82612d5e565b600b82019050919050565b6000612db582612d87565b9150612dc18284612b7e565b915081905092915050565b7f54484952445f574f524400000000000000000000000000000000000000000000600082015250565b6000612e02600a83612b27565b9150612e0d82612dcc565b600a82019050919050565b6000612e2382612df5565b9150612e2f8284612b7e565b915081905092915050565b6000612e468285612b7e565b9150612e528284612b7e565b91508190509392505050565b6000612e6a8286612b7e565b9150612e768285612b7e565b9150612e828284612b7e565b9150819050949350505050565b60008190508160005260206000209050919050565b60008154612eb181612940565b612ebb8186612b27565b94506001821660008114612ed65760018114612eeb57612f1e565b60ff1983168652811515820286019350612f1e565b612ef485612e8f565b60005b83811015612f1657815481890152600182019150602081019050612ef7565b838801955050505b50505092915050565b7f3c2f746578743e3c2f7376673e00000000000000000000000000000000000000600082015250565b6000612f5d600d83612b27565b9150612f6882612f27565b600d82019050919050565b6000612f7f8285612ea4565b9150612f8b8284612b7e565b9150612f9682612f50565b91508190509392505050565b7f7b226e616d65223a202200000000000000000000000000000000000000000000600082015250565b6000612fd8600a83612b27565b9150612fe382612fa2565b600a82019050919050565b7f222c20226465736372697074696f6e223a20224120686967686c79206163636c60008201527f61696d656420636f6c6c656374696f6e206f6620737175617265732e222c202260208201527f696d616765223a2022646174613a696d6167652f7376672b786d6c3b6261736560408201527f36342c0000000000000000000000000000000000000000000000000000000000606082015250565b6000613096606383612b27565b91506130a182612fee565b606382019050919050565b7f227d000000000000000000000000000000000000000000000000000000000000600082015250565b60006130e2600283612b27565b91506130ed826130ac565b600282019050919050565b600061310382612fcb565b915061310f8285612b7e565b915061311a82613089565b91506131268284612b7e565b9150613131826130d5565b91508190509392505050565b7f646174613a6170706c69636174696f6e2f6a736f6e3b6261736536342c000000600082015250565b6000613173601d83612b27565b915061317e8261313d565b601d82019050919050565b600061319482613166565b91506131a08284612b7e565b915081905092915050565b60006040820190506131c0600083018561256d565b6131cd6020830184612683565b9392505050565b7f4552433732313a207472616e736665722066726f6d20696e636f72726563742060008201527f6f776e6572000000000000000000000000000000000000000000000000000000602082015250565b6000613230602583612431565b915061323b826131d4565b604082019050919050565b6000602082019050818103600083015261325f81613223565b9050919050565b7f4552433732313a207472616e7366657220746f20746865207a65726f2061646460008201527f7265737300000000000000000000000000000000000000000000000000000000602082015250565b60006132c2602483612431565b91506132cd82613266565b604082019050919050565b600060208201905081810360008301526132f1816132b5565b9050919050565b60006133048284612b7e565b915081905092915050565b60006040820190508181036000830152613329818561247d565b90506133386020830184612683565b9392505050565b7f4552433732313a20617070726f766520746f2063616c6c657200000000000000600082015250565b6000613375601983612431565b91506133808261333f565b602082019050919050565b600060208201905081810360008301526133a481613368565b9050919050565b7f4552433732313a207472616e7366657220746f206e6f6e20455243373231526560008201527f63656976657220696d706c656d656e7465720000000000000000000000000000602082015250565b6000613407603283612431565b9150613412826133ab565b604082019050919050565b60006020820190508181036000830152613436816133fa565b9050919050565b7f4e487b7100000000000000000000000000000000000000000000000000000000600052601160045260246000fd5b6000613477826124d8565b9150613482836124d8565b925082820190508082111561349a5761349961343d565b5b92915050565b60006134ab826124d8565b91506134b6836124d8565b9250826134c6576134c5612bd1565b5b828204905092915050565b60006134dc826124d8565b91506134e7836124d8565b92508282026134f5816124d8565b9150828204841483151761350c5761350b61343d565b5b5092915050565b7f45524337323155524953746f726167653a2055524920736574206f66206e6f6e60008201527f6578697374656e7420746f6b656e000000000000000000000000000000000000602082015250565b600061356f602e83612431565b915061357a82613513565b604082019050919050565b6000602082019050818103600083015261359e81613562565b9050919050565b60006020601f8301049050919050565b600082821b905092915050565b6000600883026135f27fffffffffffffffffffffffffffffffffffffffffffffffffffffffffffffffff826135b5565b6135fc86836135b5565b95508019841693508086168417925050509392505050565b6000819050919050565b600061363961363461362f846124d8565b613614565b6124d8565b9050919050565b6000819050919050565b6136538361361e565b61366761365f82613640565b8484546135c2565b825550505050565b600090565b61367c61366f565b61368781848461364a565b505050565b5b818110156136ab576136a0600082613674565b60018101905061368d565b5050565b601f8211156136f0576136c181612e8f565b6136ca846135a5565b810160208510156136d9578190505b6136ed6136e5856135a5565b83018261368c565b50505b505050565b600082821c905092915050565b6000613713600019846008026136f5565b1980831691505092915050565b600061372c8383613702565b9150826002028217905092915050565b61374582612426565b67ffffffffffffffff81111561375e5761375d612723565b5b6137688254612940565b6137738282856136af565b600060209050601f8311600181146137a65760008415613794578287015190505b61379e8582613720565b865550613806565b601f1984166137b486612e8f565b60005b828110156137dc578489015182556001820191506020850194506020810190506137b7565b868310156137f957848901516137f5601f891682613702565b8355505b6001600288020188555050505b505050505050565b60006060820190508181036000830152613828818661247d565b90506138376020830185612683565b613844604083018461256d565b949350505050565b600081519050919050565b600082825260208201905092915050565b60006138738261384c565b61387d8185613857565b935061388d818560208601612442565b6138968161246c565b840191505092915050565b60006080820190506138b6600083018761256d565b6138c3602083018661256d565b6138d06040830185612683565b81810360608301526138e28184613868565b905095945050505050565b6000815190506138fc81612397565b92915050565b60006020828403121561391857613917612361565b5b6000613926848285016138ed565b91505092915050565b7f4552433732313a206d696e7420746f20746865207a65726f2061646472657373600082015250565b6000613965602083612431565b91506139708261392f565b602082019050919050565b6000602082019050818103600083015261399481613958565b9050919050565b7f4552433732313a20746f6b656e20616c7265616479206d696e74656400000000600082015250565b60006139d1601c83612431565b91506139dc8261399b565b602082019050919050565b60006020820190508181036000830152613a00816139c4565b9050919050565b7f4e487b7100000000000000000000000000000000000000000000000000000000600052605160045260246000fdfe416e204e465420772f20494420257320686173206265656e206d696e74656420746f2025734142434445464748494a4b4c4d4e4f505152535455565758595a6162636465666768696a6b6c6d6e6f707172737475767778797a303132333435363738392b2fa2646970667358221220afcfe7491e96024c662f706fccd077cd31ad64fc99cf97c0e076acd1a469488764736f6c634300081200333c73766720786d6c6e733d27687474703a2f2f7777772e77332e6f72672f323030302f73766727207072657365727665417370656374526174696f3d27784d696e594d696e206d656574272076696577426f783d273020302033353020333530273e3c7374796c653e2e62617365207b2066696c6c3a2077686974653b20666f6e742d66616d696c793a2073657269663b20666f6e742d73697a653a20323470783b207d3c2f7374796c653e3c726563742077696474683d273130302527206865696768743d2731303025272066696c6c3d27626c61636b27202f3e3c7465787420783d273530252720793d273530252720636c6173733d27626173652720646f6d696e616e742d626173656c696e653d276d6964646c652720746578742d616e63686f723d276d6964646c65273e",
  "linkReferences": {},
  "deployedLinkReferences": {}
}